:100189001202017B007A00790C7FE87E037D007CF6
:10019900001201C675E1FF75E9FFD2847B007A0080
:1001A900790C120003EF60F4B2847B007A00790CB9
:0D01B9007FE87E037D007C001201C680DF20
:1002010074FF750BF0F50AF509F508C2AF43864096
:10021100D2CC75CC82F5CDD2C95386BF43A940D289
:02022100AF220A
:03006B000202236B
:10022300C0E0050BE50B700E050AE50A7008050929
:09023300E50970020508D0E03273
:1001C6008F188E178D168C1553A9BFAF0BAE0AADBF
:1001D60009AC0890000412010DE50B2518FFE50A8D
:1001E6003517FEE5093516FDE5083515FC1200F351
:0B01F600900008E412009B43A9402287
:100003008B158A16891753A9BFAB15AA16A9179082
:10001300000812006E70351200D3AB07AA06A905BB
:10002300A804C3E50B9BFFE50A9AFEE50999FDE5E4
:100033000898FCE4FBFAF9F8C31200BD500EAB15A7
:10004300AA16A917900008740112009B43A940AB9C
:0D00530015AA16A91790000812006EFF22D2
:0300000002023CBD
:0C023C00787FE4F6D8FD75811802018976
:10006E00BB010CE58229F582E5833AF583E0225047
:10007E0006E92582F8E622BBFE06E92582F8E22291
:0D008E00E58229F582E5833AF583E49322AB
:10009B00F8BB010DE58229F582E5833AF583E8F09B
:1000AB00225006E92582C8F622BBFE05E92582C847
:0200BB00F2222F
:1000BD00EB9FF5F0EA9E42F0E99D42F0EC6480C8BA
:0600CD0064809845F0225A
:1000D300BB010789828A8302013D5005E9F80201C9
:1000E30031BBFE05E9F802014989828A8302015581
:1000F300BB010789828A830201715005E9F8020175
:0A01030065BBFE05E9F802017D224C
:10010D00BB010DE58229F582E5833AF58302017184
:10011D005007E92582F8020165BBFE07E92582F843
:04012D0002017D222C
:0C013100E6FC08E6FD08E6FE08E6FF22FA
:0C013D00E0FCA3E0FDA3E0FEA3E0FF2235
:0C014900E2FC08E2FD08E2FE08E2FF22F2
:10015500E493FC740193FD740293FE740393FF22F0
:0C016500ECF608EDF608EEF608EFF622C6
:0C017100ECF0A3EDF0A3EEF0A3EFF02201
:0C017D00ECF208EDF208EEF208EFF222BE
:00000001FF
