:0C0CF000810100810300810200810000EE
:0A0F490043E13043E4F043E51822D1
:10044700782D7480F2C2AF75B2C8782DE2FF14F22E
:10045700EF60030080F443B204120D77120F4912C4
:100467000F53D284D285120EE0120D20120D207F79
:10047700011200037D187C247F021205E474FFFF3C
:10048700FE120F337F401205227B007A0079207F0E
:10049700E87E037D007C00120B38D2B4E4782DF29D
:1004A7001202D67800EFF260537F401205227DF6E4
:1004B7007C227F021205E47800E2FF75F064842451
:1004C7004AF582E43400F583E0780AF2EF75F00A22
:1004D7008475F00A84744A25F0F582E43400F583C4
:1004E700E008F27800E275F00A84744A25F0F58294
:1004F700E43400F583E0780CF2120ED07B007A002A
:100507007920120927EF60987B007A0079207FE82D
:0B0517007E037D007C00120B38808505
:0A0F3300EF1FAC0670011E4C70F6B3
:010F3D002291
:100D770074FF751FF0F51EF51DF51CC2AF438640C5
:100D8700D2CC75CC8875CDFED2C9758802D28A536C
:080D970086BF43A950D2AF2230
:03005B00020C8E06
:100C8E00C0E0C0D075D000C0007801E204F2E2B43A
:100C9E003C18E4F27803E204F2E2B43C0DE4F2789C
:100CAE0002E204F2E2B41802E4F2D000D0D0D0E0B6
:010CBE003203
:03006B00020E453D
:100E4500C0E0051FE51F700E051EE51E7008051D97
:090E5500E51D7002051CD0E0321D
:100B3800783012025253A9BFAF1FAE1EAD1DAC1CB8
:100B480090000412022E7830E2FC08E2FD08E2FE72
:100B580008E2251FFFEE351EFEED351DFDEC351CA8
:0F0B6800FC120214900008E41201BC43A94022C1
:100927007830EBF208EAF208E9F253A9BF7830E22F
:10093700FB08E2FA08E2F990000812017D7039120B
:1009470001F4AB07AA06A905A804C3E51F9BFFE5A9
:100957001E9AFEE51D99FDE51C98FCE4FBFAF9F8E3
:10096700C31201DE50127830E2FB08E2FA08E2F91E
:1009770090000874011201BC43A9407830E2FB08DB
:0D098700E2FA08E2F990000812017DFF225B
:0D0CFC004A004AFA60BCF466D6DE70FEF6CF
:0B0F3E00C2B5D2B700C2B7C2B5002296
:080D4C00EF25E025E0FF7D0624
:100D5400AE05E4FDEDC39E5019EF20E704C2B68052
:100D640002D2B6C2B700000000D2B7EF25E0FF0DF3
:020D740080E21B
:010D7600225A
:100DED00E4FEEEC39D5019EF20E004C2B68002D29E
:100DFD00B6C2B700000000D2B7EFC313FF0E80E2FA
:010E0D0022C2
:100EA600AC07120F3E7D047F80120D54AF047D08FF
:060EB600120D54D2B5221A
:100E0E00AC05AB07120F3E7D037FA0120D54AF034E
:0D0E1E00120D4CAF047D04120DEDD2B52273
:020C5C00AC07E3
:100C5E00120F3E7D037FA0120D54AF04120D4CE413
:100C6E00FC7832E2FFECC39F5013120164FF7D0843
:0F0C7E00120DED0C740129F9E43AFA80E4D2B5B5
:010C8D002244
:100D20007F52120EA67F02120EA67F06120EA67A20
:100D300008AF02E4FD120E0E0AEAB420F47E007F32
:0C0D40000C7D007BFE7A00790402025E4C
:100ED0007BFE7A0079047832740CF27F08020C5C95
:1009FC0000000000ADAE0000A3000000AFB000008E
:100A0C00A5A6A8A7A9AAACABB1000000A000000045
:100A1C00B2B30000A1000000B4B50000C0C10000DA
:100A2C00BEBF0000BCBD0000BABB0000B8B90000DE
:100A3C00B6B70000030C028A022601C2015E00FA5E
:060A4C00009600320000DC
:040D090002110000D3
:10083A004393805393F1EF25E04293439301E59369
:10084A0030E00D7830E2C394805005E204F280EE85
:10085A00AF977E00AC96EF7802C333CE33CED8F989
:10086A00FFECFBEB4FFFC39420EE94034003E4FF3D
:10087A0022E4FCEC25E02440F582E4340AF583D333
:10088A007401939FE4939E40050CECB40AE5ECC313
:10089A0094094004E4FD8004AF04AD07744A2DF5C1
:0C08AA0082E43400F583E07808F2AF052A
:0108B600221F
:0A0F530075950643938075942722DC
:100EE000E47811F2FB7A007908FFFEFDFC020B3872
:1002D600E4782FF2FB7A007908120927EF7002FF03
:1002E600227B007A0079087F147E007D007C001254
:1002F6000B387F0112083A782EEFF270127F021245
:10030600083A782EEFF2D394004004E22408F278FB
:1003160011E214603514606824FE70030203E524BC
:10032600046003020440782EE2FE7002FF22EE759E
:100336001100F5127B007A0079137F1E7E007D0086
:100346007C00120B3878117401F2782EE265127077
:1003560002E51160030204407B007A00791312095A
:1003660027EF70030204447B007A0079137FE87E4E
:10037600037D007C00120B3878117402F2020444EB
:10038600782EE265127002E511601AE47811F2E542
:1003960012AE117802C333CE33CED8F924FCF582DF
:1003A60074090204397B007A007913120927EF7069
:1003B600030204447B007A0079137F287E007D00C7
:1003C6007C00120B3878117404F2E512AE11780233
:1003D600C333CE33CED8F924FDF582740980547820
:1003E6002EE265127002E5116019E47811F2E51249
:1003F600AE117802C333CE33CED8F924FEF582741B
:100406000980307B007A007913120927EF602F7B71
:10041600007A0079137F287E007D007C00120B385D
:10042600E512AE117802C333CE33CED8F924FFF5E8
:100436008274093EF583E493FF22E47811F27F008B
:010446002293
:0E0EFF0014100001410511200027F600230009
:0C0F2700C2C37F007E01120F33D2C32230
:100AF300E4783FF208F27BFE7A00791C78457401B2
:100B0300F27FC61209947840E22401F218E234001D
:100B1300F2781CE220E70CC37840E294FF18E294D9
:100B23000040D3C37840E294FF18E2940040037F6F
:040B330003227F0119
:010B3700229B
:1008B700E4783CF208F2087C007DFE7BFF7A0E7933
:1008C700FFFE7F0112013E7BFE7A00793E7843747A
:1008D70001F27FC6120AA8120AF3EF640160037FD0
:1008E70003227BFE7A00791C78457401F27FC612D9
:1008F7000994783DE22401F218E23400F2781CE210
:1009070020E00CC3783DE294FF18E294FF40B878EA
:0F0917003DE2B4FF0818E2B4FF037F03227F0123
:0109260022AE
:1007B600E47812F208F2087C007DFE7BFF7A0F795E
:1007C60000FE7F0212013EE4781CF27BFE7A00797D
:1007D6001478437402F27FC6120AA87BFE7A007967
:1007E6001C78457401F27FC61209947813E224013D
:1007F600F218E23400F2781CE220E70CC37813E228
:1008060094FF18E2940040D3C37813E294FF18E2F1
:10081600940040037F03227BFE7A00791C7845749E
:1008260004F27FC6120994781FE2643060037F00E9
:03083600227F011D
:01083900229C
:04000300782EEFF272
:10000700087C007DFE7BFF7A0F79027E007F03125A
:10001700013E782EE224FE600904700F783074D018
:100027008004783074D1F2087405F2120F277BFE32
:100037007A00792F78437403F27FC6120AA87F6487
:100047007E00120F33120AF3EF640160037F03226D
:020057007F0127
:010059002284
:100CBF0078167C007DFE7BFF7A0F79057E007F0121
:100CCF0012013E7BFE7A00791678437403F27FC6D9
:100CDF00120AA8120AF3EF640160037F03227F0157
:010CEF0022E2
:100E5E0078437406F27FC6120AA8120AF3EF6401F1
:080E6E0060037F03227F0122D3
:0A05E400782EEFF208ECF208EDF2B9
:1005EE0078357C007DFE7BFF7A0F79067E007F05D5
:1005FE0012013E783A7413F2087488F2782EE26093
:10060E002014601D24FC5002802C78317422F208D4
:10061E00742EF208742AF2087430F2087420F280F4
:10062E001578317402F2087413F2087406F2087425
:10063E0042F2087440F27831E2FE08E2FFC37830ED
:10064E00E29F18E29E5005EEF208EFF27833E2FEDA
:10065E0008E2FFD37830E29F18E29E4005EEF208E2
:10066E00EFF2782FE2FE08E27838F2EE18F27BFE17
:10067E007A00793578437405F27FC6120AA8120AF9
:10068E00F3EF640160037F03221208B7EF64016089
:06069E00037F00227F0132
:0106A4002233
:070731007817EFF208EDF26A
:10073800087C007DFE7BFF7A0F790B7E007F02121A
:10074800013E781B74DCF27817E2601014600D2407
:10075800FC5002800C78197423F2800578197443D0
:10076800F27BFE7A00791978437402F27FC6120A86
:10077800A8120AF37BFE7A00791C78457408F27F88
:10078800C61209947818E224FD601214601624FD3C
:10079800601724057017781EE25401FF22781FE2C3
:0D07A8005480FF227820E2FF227823E2FF38
:0107B5002221
:0F0EF000D2B6120F1AC2B67F01120F1EC2B7225E
:0B0E2B00EFF208EBF208EAF208E9F22F
:0F0E3600D2C4120F1AC2C47F01120F1EC2B722FC
:0D005E00C2B600120F1AD2B67F01020F1EAB
:0D0F0D00C2C400120F1AD2C47F01020F1ED1
:100D9F00C2B77F01120F1ED2B67F01120F1E53E48E
:100DAF00BF120F1A30B608C2B743E4407F0022C209
:070DBF00B743E4407F01226D
:100DC600C2B77F01120F1ED2C47F01120F1E53E558
:100DD600EF120F1A30C408C2B743E5107F0022C2D3
:070DE600B743E5107F012275
:100E7600C2B77F01120F1EC2C47F01120F1E120FCE
:080E86001AC2B77F01020F1E22
:100E8E00C2B77F01120F1ED2C47F01120F1E120FA6
:080E9E001AC2B77F01020F1E0A
:040BEC007835EFF277
:100BF000087408F27836E2FF14F2EF6024C2B77F7F
:100C000001120F1E7835E2FF30E704D2B68002C22F
:100C1000B6EF25E07835F27F01120F1E120F1A8011
:030C2000D3C2B785
:010C230022AE
:040C24007847EFF22C
:100C2800087408F27848E2FF14F2EF6024C2B77F34
:100C380001120F1E7847E2FF30E704D2C48002C2D7
:100C4800C4EF25E07847F27F01120F1E120F1A80B9
:030C5800D3C2B74D
:010C5B002276
:100BB20078487408F2E418F2D2C453E5EF7848E2B8
:100BC200FF14F2EF601A18E225E0F2C2B77F0112B9
:100BD2000F1E120F1A30C4E57847E24401F280DD9D
:090BE20043E510C2B77847E2FFB9
:010BEB0022E7
:100A52007830EFF208EBF208EAF208E9F2120EF04F
:100A62007830E254FEFF120BEC120D9FEF7006126B
:100A7200005E7F00227834E260267831E2FB08E2F1
:100A8200FA08E2F9120164FF120BEC120D9F78339F
:100A9200E22401F218E23400F27834E214F280D552
:060AA20012005E7F01223C
:100AA800783F120E2B783FE254FEFF120C24120DF1
:100AB800C6EF7006120F0D7F00227843E260267899
:100AC80040E2FB08E2FA08E2F9120164FF120C2482
:100AD800120DC67842E22401F218E23400F278439B
:0B0AE800E214F280D5120F0D7F0122F6
:020994007841A8
:10099600120E2B7841E204FF120C24120DC6EF70E2
:1009A60006120F0D7F0022E47846F27845E214FF26
:1009B60008E2C39F5026120BB27842E2FB08E2FA25
:1009C60008E2F9EF1201AA120E767844E22401F247
:1009D60018E23400F27846E204F280CF120BB278C5
:1009E60042E2FB08E2FA08E2F9EF1201AA120E8EC1
:0509F600120F0D7F014E
:0109FB0022D9
:040F1A00D2B77F01CA
:040F1E007849EFF22D
:040F22007F05DFFE6A
:010F260022A8
:100B77008AFA24600000D6D16DD0009E59605000DB
:100B87008AD16DD000ECD16416000102030405067A
:100B9700070E0D0C0B0A09081F1C1814100C08046B
:0B0BA700000004080C101414181C1FA0
:100D0D0081260F812807812907812C09812B0981D3
:020D1D002500AF
:100EBC00782FEFF27BFE7A00792F78347401F27F71
:040ECC0088020A523C
:10052200782EEFF27FFF7E0F120F33782EE2FF124A
:100532000EBC7FFF7E00120F337826E225E0FFC358
:10054200743F9FFF120EBC7FFF7E00120F337F802D
:10055200120EBC7FFF7E00120F337FA0120EBC7FF3
:10056200FF7E00120F33782CE2FFD3648094875011
:1005720015EF3395E0FE749F2FF582740B3EF583E1
:10058200E49344A08016782CE2FF3395E0FE749F3A
:100592002FF582740B3EF583E4934480FF120EBC68
:1005A2007FFF7E00120F337828E2FF3395E0FE745E
:1005B200902FF582740B3EF583E4934460FF120E94
:1005C200BC7FFF7E00120F337829E2FF3395E0FEF5
:1005D20074902FF582740B3EF583E4934470FF020E
:0205E2000EBC4D
:030000000206A550
:0C06A500787FE4F6D8FD7581280206EC91
:10006E00E709F608DFFA8046E709F208DFFA803E74
:10007E0088828C83E709F0A3DFFA8032E309F60861
:10008E00DFFA8078E309F208DFFA807088828C83C9
:10009E00E309F0A3DFFA806489828A83E0A3F6087D
:1000AE00DFFA805889828A83E0A3F208DFFA804C57
:1000BE0080D280FA80C680D4806980F2803380102E
:1000CE0080A680EA809A80A880DA80E280CA803397
:1000DE0089828A83ECFAE493A3C8C582C8CCC5830F
:1000EE00CCF0A3C8C582C8CCC583CCDFE9DEE780DF
:1000FE000D89828A83E493A3F608DFF9ECFAA9F05E
:10010E00EDFB2289828A83ECFAE0A3C8C582C8CCB3
:10011E00C583CCF0A3C8C582C8CCC583CCDFEADECC
:10012E00E880DB89828A83E493A3F208DFF980CC2E
:10013E0088F0EF60010E4E60C388F0ED2402B40427
:10014E000050B9F582EB2402B4040050AF232345CE
:06015E0082239000BE7335
:10016400BB010689828A83E0225002E722BBFE0299
:09017400E32289828A83E49322CC
:10017D00BB010CE58229F582E5833AF583E0225037
:10018D0006E92582F8E622BBFE06E92582F8E22281
:0D019D00E58229F582E5833AF583E493229B
:1001AA00BB010689828A83F0225002F722BBFE0134
:0201BA00F3222E
:1001BC00F8BB010DE58229F582E5833AF583E8F079
:1001CC00225006E92582C8F622BBFE05E92582C825
:0201DC00F2220D
:1001DE00EB9FF5F0EA9E42F0E99D42F0EC6480C898
:0601EE0064809845F02238
:1001F400BB010789828A830202965005E9F802024C
:100204008ABBFE05E9F80202A289828A830202AE51
:10021400BB010789828A830202CA5005E9F80202F7
:0A022400BEBBFE05E9F802025222FB
:10022E00BB010DE58229F582E5833AF5830202CA08
:10023E005007E92582F80202BEBBFE07E92582F8C7
:04024E000202522234
:0C025200ECF208EDF208EEF208EFF222E8
:10025E00EF4E6012EF60010EEDBB010B89828A83B7
:10026E00F0A3DFFCDEFA2289F05007F709DFFCA9C4
:0C027E00F022BBFEFCF309DFFCA9F0221B
:1006B100020447E493A3F8E493A34003F68001F214
:1006C10008DFF48029E493A3F85407240CC8C3334A
:1006D100C4540F4420C8834004F456800146F6DF19
:1006E100E4800B0102040810204080900CF0E47EAD
:1006F100019360BCA3FF543F30E509541FFEE4930E
:10070100A360010ECF54C025E060A840B8E493A3D4
:10071100FAE493A3F8E493A3C8C582C8CAC583CAFF
:10072100F0A3C8C582C8CAC583CADFE9DEE780BEB7
:010D1F0000D3
:0C028A00E6FC08E6FD08E6FE08E6FF22A0
:0C029600E0FCA3E0FDA3E0FEA3E0FF22DB
:0C02A200E2FC08E2FD08E2FE08E2FF2298
:1002AE00E493FC740193FD740293FE740393FF2296
:0C02BE00ECF608EDF608EEF608EFF6226C
:0C02CA00ECF0A3EDF0A3EEF0A3EFF022A7
:00000001FF
