:0A00600043E13043E4E043E51822D9
:10018900751500751680C2AF75B2C8E5161516AE9D
:1001990015700215154E60030080F043B204120277
:1001A9001512006012029580157B007A00790C12F5
:1001B9000003EF60F47F011202518E158F167B0048
:1001C9007A00790C7FE87E037D007C001201DA80D9
:0101D900D84D
:1002150074FF750BF0F50AF509F508C2AF43864082
:10022500D2CC75CC8875CDFED2C95386BF43A940C3
:03023500D2AF2223
:03006B0002023856
:10023800C0E0050BE50B700E050AE50A7008050914
:09024800E50970020508D0E0325E
:1001DA008F1A8E198D188C1753A9BFAF0BAE0AADA3
:1001EA0009AC0890000412010DE50B251AFFE50A77
:1001FA003519FEE5093518FDE5083517FC1200F337
:0B020A00900008E412009B43A9402272
:100003008B178A18891953A9BFAB17AA18A9199076
:10001300000812006E70351200D3AB07AA06A905BB
:10002300A804C3E50B9BFFE50A9AFEE50999FDE5E4
:100033000898FCE4FBFAF9F8C31200BD500EAB17A5
:10004300AA18A919900008740112009B43A940AB98
:0D00530017AA18A91990000812006EFF22CC
:0A02950075950743938075942022AD
:0C027D00759380EF25E04293439301222B
:10026800AF977E00AD96EF7802C333CE33CED8F980
:04027800FFED4FFF48
:01027C00225F
:1002510012027DE59330E00BE517C394805004054D
:060261001780F012026894
:010267002274
:0300000002028970
:0C028900787FE4F6D8FD75811A02018927
:10006E00BB010CE58229F582E5833AF583E0225047
:10007E0006E92582F8E622BBFE06E92582F8E22291
:0D008E00E58229F582E5833AF583E49322AB
:10009B00F8BB010DE58229F582E5833AF583E8F09B
:1000AB00225006E92582C8F622BBFE05E92582C847
:0200BB00F2222F
:1000BD00EB9FF5F0EA9E42F0E99D42F0EC6480C8BA
:0600CD0064809845F0225A
:1000D300BB010789828A8302013D5005E9F80201C9
:1000E30031BBFE05E9F802014989828A8302015581
:1000F300BB010789828A830201715005E9F8020175
:0A01030065BBFE05E9F802017D224C
:10010D00BB010DE58229F582E5833AF58302017184
:10011D005007E92582F8020165BBFE07E92582F843
:04012D0002017D222C
:0C013100E6FC08E6FD08E6FE08E6FF22FA
:0C013D00E0FCA3E0FDA3E0FEA3E0FF2235
:0C014900E2FC08E2FD08E2FE08E2FF22F2
:10015500E493FC740193FD740293FE740393FF22F0
:0C016500ECF608EDF608EEF608EFF622C6
:0C017100ECF0A3EDF0A3EEF0A3EFF02201
:0C017D00ECF208EDF208EEF208EFF222BE
:00000001FF
